{"abi":[{"type":"constructor","inputs":[],"stateMutability":"nonpayable"},{"type":"receive","stateMutability":"payable"},{"type":"function","name":"AAVE_POOL","inputs":[],"outputs":[{"name":"","type":"address","internalType":"contract IAaveV3Pool"}],"stateMutability":"view"},{"type":"function","name":"emergencyWithdraw","inputs":[{"name":"token","type":"address","internalType":"address"}],"outputs":[],"stateMutability":"nonpayable"},{"type":"function","name":"emergencyWithdrawNative","inputs":[],"outputs":[],"stateMutability":"nonpayable"},{"type":"function","name":"executeArb","inputs":[{"name":"params","type":"tuple","internalType":"struct AvaxArbExecutor.ArbParams","components":[{"name":"tokenIn","type":"address","internalType":"address"},{"name":"amountIn","type":"uint256","internalType":"uint256"},{"name":"swapData","type":"bytes","internalType":"bytes"},{"name":"profitToken","type":"address","internalType":"address"},{"name":"minProfit","type":"uint256","internalType":"uint256"},{"name":"tag","type":"bytes32","internalType":"bytes32"}]}],"outputs":[],"stateMutability":"nonpayable"},{"type":"function","name":"executeArbWithFlash","inputs":[{"name":"params","type":"tuple","internalType":"struct AvaxArbExecutor.ArbParams","components":[{"name":"tokenIn","type":"address","internalType":"address"},{"name":"amountIn","type":"uint256","internalType":"uint256"},{"name":"swapData","type":"bytes","internalType":"bytes"},{"name":"profitToken","type":"address","internalType":"address"},{"name":"minProfit","type":"uint256","internalType":"uint256"},{"name":"tag","type":"bytes32","internalType":"bytes32"}]}],"outputs":[],"stateMutability":"nonpayable"},{"type":"function","name":"executeOperation","inputs":[{"name":"asset","type":"address","internalType":"address"},{"name":"amount","type":"uint256","internalType":"uint256"},{"name":"premium","type":"uint256","internalType":"uint256"},{"name":"initiator","type":"address","internalType":"address"},{"name":"params","type":"bytes","internalType":"bytes"}],"outputs":[{"name":"","type":"bool","internalType":"bool"}],"stateMutability":"nonpayable"},{"type":"function","name":"owner","inputs":[],"outputs":[{"name":"","type":"address","internalType":"address"}],"stateMutability":"view"},{"type":"event","name":"ArbExecuted","inputs":[{"name":"token","type":"address","indexed":true,"internalType":"address"},{"name":"profit","type":"uint256","indexed":false,"internalType":"uint256"},{"name":"tag","type":"bytes32","indexed":true,"internalType":"bytes32"}],"anonymous":false},{"type":"error","name":"InvalidCallback","inputs":[]},{"type":"error","name":"NotOwner","inputs":[]},{"type":"error","name":"NotProfitable","inputs":[]},{"type":"error","name":"TransferFailed","inputs":[]}],"bytecode":{"object":"0x60a080604052346100455733608052611461908161004a823960805181818160bc0152818161011d015281816102f00152818161059001528181610bbd0152610dfe0152f35b5f80fdfe6080604052600436101561001a575b3615610018575f80fd5b005b5f5f3560e01c806307eb213514610db957806308a0167514610d6d5780631b11d0ff146108a15780633f71f2501461058057806346fe962c146102ca5780636ff1c9bc146100e357638da5cb5b14610072575061000e565b346100e057807ffffffffffffffffffffffffffffffffffffffffffffffffffffffffffffffffc3601126100e057602060405173ffffffffffffffffffffffffffffffffffffffff7f0000000000000000000000000000000000000000000000000000000000000000168152f35b80fd5b50346100e05760207ffffffffffffffffffffffffffffffffffffffffffffffffffffffffffffffffc3601126100e05761011b610e45565b7f00000000000000000000000000000000000000000000000000000000000000009073ffffffffffffffffffffffffffffffffffffffff821633036102a25773ffffffffffffffffffffffffffffffffffffffff16906040517f70a08231000000000000000000000000000000000000000000000000000000008152306004820152602081602481865afa908115610297578491610261575b50806101be578380f35b6040517fa9059cbb00000000000000000000000000000000000000000000000000000000815273ffffffffffffffffffffffffffffffffffffffff9290921660048301526024820152906020908290604490829086905af1801561025657610227575b80808380f35b6102489060203d60201161024f575b6102408183610ef8565b810190610fe3565b505f610221565b503d610236565b6040513d84823e3d90fd5b90506020813d60201161028f575b8161027c60209383610ef8565b8101031261028b57515f6101b4565b5f80fd5b3d915061026f565b6040513d86823e3d90fd5b6004837f30cd7471000000000000000000000000000000000000000000000000000000008152fd5b503461028b576102d936610e89565b73ffffffffffffffffffffffffffffffffffffffff7f000000000000000000000000000000000000000000000000000000000000000016330361055857604051602081016020815273ffffffffffffffffffffffffffffffffffffffff61033f84610e68565b16604083015260208301359283606084015260408101357fffffffffffffffffffffffffffffffffffffffffffffffffffffffffffffffe18236030181121561028b5781019060208235920167ffffffffffffffff831161028b57823603811361028b57610120857fffffffffffffffffffffffffffffffffffffffffffffffffffffffffffffffe0601f8661045d976104589660c0608087015281610100870152868601375f85828601015273ffffffffffffffffffffffffffffffffffffffff61040d60608901610e68565b1660a0850152608087013560c085015260a087013560e08501520116810103017fffffffffffffffffffffffffffffffffffffffffffffffffffffffffffffffe08101865285610ef8565b611008565b9173794a61358d6845594f94dc1db02a252b5b4814ad3b1561028b575f927fffffffffffffffffffffffffffffffffffffffffffffffffffffffffffffffe0601f73ffffffffffffffffffffffffffffffffffffffff9460c49460405198899788967f42b0b77c000000000000000000000000000000000000000000000000000000008852306004890152166024870152604486015260a060648601525180918160a48701528686015e86858286010152866084850152011681010301818373794a61358d6845594f94dc1db02a252b5b4814ad5af1801561054d57610541575080f35b61001891505f90610ef8565b6040513d5f823e3d90fd5b7f30cd7471000000000000000000000000000000000000000000000000000000005f5260045ffd5b3461028b5761058e36610e89565b7f000000000000000000000000000000000000000000000000000000000000000073ffffffffffffffffffffffffffffffffffffffff811633036105585760608201906024602073ffffffffffffffffffffffffffffffffffffffff6105f385611008565b16604051928380927f70a082310000000000000000000000000000000000000000000000000000000082523060048301525afa90811561054d575f9161086f575b5060408401357fffffffffffffffffffffffffffffffffffffffffffffffffffffffffffffffe18536030181121561028b5784019081359167ffffffffffffffff831161028b57602001823603811361028b5761069861069d916024943691610f73565b611067565b602073ffffffffffffffffffffffffffffffffffffffff6106bd86611008565b16604051938480927f70a082310000000000000000000000000000000000000000000000000000000082523060048301525afa801561054d575f9061083b575b6107079250610ffb565b9160808401358310610813576020836107939373ffffffffffffffffffffffffffffffffffffffff61073885611008565b16905f6040518097819582947fa9059cbb000000000000000000000000000000000000000000000000000000008452600484016020909392919373ffffffffffffffffffffffffffffffffffffffff60408201951681520152565b03925af190811561054d5760a06107e973ffffffffffffffffffffffffffffffffffffffff927f321ae10f17e879f1edb9b9cf44e3d8ba26c2dba15b6d985faf2fe32955675595956020956107f8575b50611008565b956040519586520135941692a3005b61080e90863d881161024f576102408183610ef8565b6107e3565b7fa5adf0af000000000000000000000000000000000000000000000000000000005f5260045ffd5b506020823d602011610867575b8161085560209383610ef8565b8101031261028b5761070791516106fd565b3d9150610848565b90506020813d602011610899575b8161088a60209383610ef8565b8101031261028b575184610634565b3d915061087d565b3461028b5760a07ffffffffffffffffffffffffffffffffffffffffffffffffffffffffffffffffc36011261028b576108d8610e45565b6064359073ffffffffffffffffffffffffffffffffffffffff821680920361028b576084359067ffffffffffffffff821161028b573660238301121561028b57816004013567ffffffffffffffff811161028b57820191602483019336851161028b5773794a61358d6845594f94dc1db02a252b5b4814ad331490811591610d62575b50610d3a5760208184031261028b57602481013567ffffffffffffffff811161028b57019160c0908390031261028b576040519260c0840184811067ffffffffffffffff821117610d0d576040526109b560248401610e68565b845260448301356020850152606483013567ffffffffffffffff811161028b576024908401019080601f8301121561028b578160206109f693359101610f73565b906040840191825273ffffffffffffffffffffffffffffffffffffffff610a1f60848501610e68565b926020606087019480865260c460a060808a019960a48a01358b520197013587526024604051809581937f70a08231000000000000000000000000000000000000000000000000000000008352306004840152165afa91821561054d575f92610cc5575b5073ffffffffffffffffffffffffffffffffffffffff92610aa660209251611067565b6044610ab58135602435610fa9565b5f60405196879485937fa9059cbb00000000000000000000000000000000000000000000000000000000855273794a61358d6845594f94dc1db02a252b5b4814ad60048601526024850152165af191821561054d57602492610ca8575b50602073ffffffffffffffffffffffffffffffffffffffff845116604051938480927f70a082310000000000000000000000000000000000000000000000000000000082523060048301525afa801561054d575f90610c74575b610b769250610ffb565b925183106108135780516040517fa9059cbb00000000000000000000000000000000000000000000000000000000815273ffffffffffffffffffffffffffffffffffffffff7f000000000000000000000000000000000000000000000000000000000000000081166004830152602482018690529091602091839160449183915f91165af1801561054d577f321ae10f17e879f1edb9b9cf44e3d8ba26c2dba15b6d985faf2fe329556755959260209273ffffffffffffffffffffffffffffffffffffffff92610c59575b505116925193604051908152a3602060405160018152f35b610c6f90843d861161024f576102408183610ef8565b610c41565b506020823d602011610ca0575b81610c8e60209383610ef8565b8101031261028b57610b769151610b6c565b3d9150610c81565b610cc09060203d60201161024f576102408183610ef8565b610b12565b9091506020813d602011610d05575b81610ce160209383610ef8565b8101031261028b57519073ffffffffffffffffffffffffffffffffffffffff610a83565b3d9150610cd4565b7f4e487b71000000000000000000000000000000000000000000000000000000005f52604160045260245ffd5b7ff7a632f5000000000000000000000000000000000000000000000000000000005f5260045ffd5b90503014158561095b565b3461028b575f7ffffffffffffffffffffffffffffffffffffffffffffffffffffffffffffffffc36011261028b57602060405173794a61358d6845594f94dc1db02a252b5b4814ad8152f35b3461028b575f7ffffffffffffffffffffffffffffffffffffffffffffffffffffffffffffffffc36011261028b5773ffffffffffffffffffffffffffffffffffffffff7f000000000000000000000000000000000000000000000000000000000000000016803303610558575f808080934790828215610e3c575bf11561054d57005b506108fc610e34565b6004359073ffffffffffffffffffffffffffffffffffffffff8216820361028b57565b359073ffffffffffffffffffffffffffffffffffffffff8216820361028b57565b60207ffffffffffffffffffffffffffffffffffffffffffffffffffffffffffffffffc82011261028b576004359067ffffffffffffffff821161028b577ffffffffffffffffffffffffffffffffffffffffffffffffffffffffffffffffc8260c09203011261028b5760040190565b90601f7fffffffffffffffffffffffffffffffffffffffffffffffffffffffffffffffe0910116810190811067ffffffffffffffff821117610d0d57604052565b67ffffffffffffffff8111610d0d57601f017fffffffffffffffffffffffffffffffffffffffffffffffffffffffffffffffe01660200190565b929192610f7f82610f39565b91610f8d6040519384610ef8565b82948184528183011161028b578281602093845f960137010152565b91908201809211610fb657565b7f4e487b71000000000000000000000000000000000000000000000000000000005f52601160045260245ffd5b9081602091031261028b5751801515810361028b5790565b91908203918211610fb657565b3573ffffffffffffffffffffffffffffffffffffffff8116810361028b5790565b90815181101561103a570160200190565b7f4e487b71000000000000000000000000000000000000000000000000000000005f52603260045260245ffd5b80511561103a57602081015160f81c905f9060015b8360ff84161061108c5750505050565b600161109a60ff92846110ed565b9301169161107c565b519073ffffffffffffffffffffffffffffffffffffffff8216820361028b57565b9081606091031261028b576110d8816110a3565b9160406110e7602084016110a3565b92015190565b905f906110fa8184611029565b5160f81c6001820193848311610fb65784916001810361120e57509061111f91611380565b60608180518101031261028b57611138602082016110a3565b9073ffffffffffffffffffffffffffffffffffffffff60606040830151920151921691823b1561028b5760a45f928360405195869485937f022c0d9f00000000000000000000000000000000000000000000000000000000855260048501526024840152306044840152608060648401528160848401525af1801561054d576111f8575b506055018092116111cb575090565b807f4e487b7100000000000000000000000000000000000000000000000000000000602492526011600452fd5b6112059192505f90610ef8565b5f9060556111bc565b909350600281036112ec57505f73ffffffffffffffffffffffffffffffffffffffff806112516112436020956112af98611380565b8580825183010191016110c4565b94919390604051988996879586937fa9059cbb00000000000000000000000000000000000000000000000000000000855216600484016020909392919373ffffffffffffffffffffffffffffffffffffffff60408201951681520152565b0393165af191821561054d576055926112cf575b5001809111610fb65790565b6112e79060203d60201161024f576102408183610ef8565b6112c3565b6003146112f95750505090565b5f73ffffffffffffffffffffffffffffffffffffffff806113226112436020956112af98611380565b94919390604051988996879586937f095ea7b300000000000000000000000000000000000000000000000000000000855216600484016020909392919373ffffffffffffffffffffffffffffffffffffffff60408201951681520152565b9061138b6054610f39565b916113996040519384610ef8565b605483527fffffffffffffffffffffffffffffffffffffffffffffffffffffffffffffffe06113c86054610f39565b013660208501375f5b605481106113df5750505090565b807fff0000000000000000000000000000000000000000000000000000000000000061141661141060019487610fa9565b85611029565b51165f1a6114248287611029565b53016113d156fea2646970667358221220891b61d0a4cf4fa06f0e230d5f825349fabcbc5ce40ea5dc14ee39b6df25f66e64736f6c634300081e0033","linkReferences":{}},"methodIdentifiers":{"AAVE_POOL()":"08a01675","emergencyWithdraw(address)":"6ff1c9bc","emergencyWithdrawNative()":"07eb2135","executeArb((address,uint256,bytes,address,uint256,bytes32))":"3f71f250","executeArbWithFlash((address,uint256,bytes,address,uint256,bytes32))":"46fe962c","executeOperation(address,uint256,uint256,address,bytes)":"1b11d0ff","owner()":"8da5cb5b"},"id":0}